{
  "address": "0x463DA194E0653d9F4beF5d342F18679d7404b6c4",
  "abi": [
    {
      "inputs": [],
      "stateMutability": "nonpayable",
      "type": "constructor"
    },
    {
      "inputs": [],
      "name": "HighFees",
      "type": "error"
    },
    {
      "inputs": [],
      "name": "InvalidAmount",
      "type": "error"
    },
    {
      "inputs": [],
      "name": "InvalidBps",
      "type": "error"
    },
    {
      "inputs": [],
      "name": "TransferFailed",
      "type": "error"
    },
    {
      "inputs": [],
      "name": "ZeroAddress",
      "type": "error"
    },
    {
      "anonymous": false,
      "inputs": [
        {
          "indexed": false,
          "internalType": "uint256",
          "name": "feeBps",
          "type": "uint256"
        }
      ],
      "name": "FeeBpsSet",
      "type": "event"
    },
    {
      "anonymous": false,
      "inputs": [
        {
          "indexed": false,
          "internalType": "uint256",
          "name": "feeEarnedInETH",
          "type": "uint256"
        }
      ],
      "name": "FeesWithdrawn",
      "type": "event"
    },
    {
      "anonymous": false,
      "inputs": [
        {
          "indexed": false,
          "internalType": "uint8",
          "name": "version",
          "type": "uint8"
        }
      ],
      "name": "Initialized",
      "type": "event"
    },
    {
      "anonymous": false,
      "inputs": [
        {
          "indexed": true,
          "internalType": "address",
          "name": "oracle",
          "type": "address"
        }
      ],
      "name": "OracleSet",
      "type": "event"
    },
    {
      "anonymous": false,
      "inputs": [
        {
          "indexed": true,
          "internalType": "bytes32",
          "name": "role",
          "type": "bytes32"
        },
        {
          "indexed": true,
          "internalType": "bytes32",
          "name": "previousAdminRole",
          "type": "bytes32"
        },
        {
          "indexed": true,
          "internalType": "bytes32",
          "name": "newAdminRole",
          "type": "bytes32"
        }
      ],
      "name": "RoleAdminChanged",
      "type": "event"
    },
    {
      "anonymous": false,
      "inputs": [
        {
          "indexed": true,
          "internalType": "bytes32",
          "name": "role",
          "type": "bytes32"
        },
        {
          "indexed": true,
          "internalType": "address",
          "name": "account",
          "type": "address"
        },
        {
          "indexed": true,
          "internalType": "address",
          "name": "sender",
          "type": "address"
        }
      ],
      "name": "RoleGranted",
      "type": "event"
    },
    {
      "anonymous": false,
      "inputs": [
        {
          "indexed": true,
          "internalType": "bytes32",
          "name": "role",
          "type": "bytes32"
        },
        {
          "indexed": true,
          "internalType": "address",
          "name": "account",
          "type": "address"
        },
        {
          "indexed": true,
          "internalType": "address",
          "name": "sender",
          "type": "address"
        }
      ],
      "name": "RoleRevoked",
      "type": "event"
    },
    {
      "anonymous": false,
      "inputs": [
        {
          "indexed": true,
          "internalType": "address",
          "name": "user",
          "type": "address"
        },
        {
          "indexed": false,
          "internalType": "uint256",
          "name": "ETHxAmount",
          "type": "uint256"
        },
        {
          "indexed": false,
          "internalType": "uint256",
          "name": "fee",
          "type": "uint256"
        },
        {
          "indexed": false,
          "internalType": "string",
          "name": "referralId",
          "type": "string"
        }
      ],
      "name": "SwapOccurred",
      "type": "event"
    },
    {
      "anonymous": false,
      "inputs": [
        {
          "indexed": false,
          "internalType": "uint256",
          "name": "ethBalanceMinusFees",
          "type": "uint256"
        }
      ],
      "name": "WithdrawCollectedETH",
      "type": "event"
    },
    {
      "anonymous": false,
      "inputs": [
        {
          "indexed": false,
          "internalType": "uint256",
          "name": "amount",
          "type": "uint256"
        }
      ],
      "name": "WithdrawETHx",
      "type": "event"
    },
    {
      "inputs": [],
      "name": "DEFAULT_ADMIN_ROLE",
      "outputs": [
        {
          "internalType": "bytes32",
          "name": "",
          "type": "bytes32"
        }
      ],
      "stateMutability": "view",
      "type": "function"
    },
    {
      "inputs": [],
      "name": "ETHER_TO_WEI",
      "outputs": [
        {
          "internalType": "uint256",
          "name": "",
          "type": "uint256"
        }
      ],
      "stateMutability": "view",
      "type": "function"
    },
    {
      "inputs": [],
      "name": "ETHx",
      "outputs": [
        {
          "internalType": "contract IERC20",
          "name": "",
          "type": "address"
        }
      ],
      "stateMutability": "view",
      "type": "function"
    },
    {
      "inputs": [],
      "name": "MANAGER_ROLE",
      "outputs": [
        {
          "internalType": "bytes32",
          "name": "",
          "type": "bytes32"
        }
      ],
      "stateMutability": "view",
      "type": "function"
    },
    {
      "inputs": [],
      "name": "ethxOracle",
      "outputs": [
        {
          "internalType": "address",
          "name": "",
          "type": "address"
        }
      ],
      "stateMutability": "view",
      "type": "function"
    },
    {
      "inputs": [],
      "name": "feeBps",
      "outputs": [
        {
          "internalType": "uint256",
          "name": "",
          "type": "uint256"
        }
      ],
      "stateMutability": "view",
      "type": "function"
    },
    {
      "inputs": [],
      "name": "feeEarnedInETH",
      "outputs": [
        {
          "internalType": "uint256",
          "name": "",
          "type": "uint256"
        }
      ],
      "stateMutability": "view",
      "type": "function"
    },
    {
      "inputs": [
        {
          "internalType": "bytes32",
          "name": "role",
          "type": "bytes32"
        }
      ],
      "name": "getRoleAdmin",
      "outputs": [
        {
          "internalType": "bytes32",
          "name": "",
          "type": "bytes32"
        }
      ],
      "stateMutability": "view",
      "type": "function"
    },
    {
      "inputs": [
        {
          "internalType": "bytes32",
          "name": "role",
          "type": "bytes32"
        },
        {
          "internalType": "address",
          "name": "account",
          "type": "address"
        }
      ],
      "name": "grantRole",
      "outputs": [],
      "stateMutability": "nonpayable",
      "type": "function"
    },
    {
      "inputs": [
        {
          "internalType": "bytes32",
          "name": "role",
          "type": "bytes32"
        },
        {
          "internalType": "address",
          "name": "account",
          "type": "address"
        }
      ],
      "name": "hasRole",
      "outputs": [
        {
          "internalType": "bool",
          "name": "",
          "type": "bool"
        }
      ],
      "stateMutability": "view",
      "type": "function"
    },
    {
      "inputs": [
        {
          "internalType": "address",
          "name": "_admin",
          "type": "address"
        },
        {
          "internalType": "address",
          "name": "_manager",
          "type": "address"
        },
        {
          "internalType": "address",
          "name": "_ethx",
          "type": "address"
        },
        {
          "internalType": "uint256",
          "name": "_feeBps",
          "type": "uint256"
        },
        {
          "internalType": "address",
          "name": "_ethxOracle",
          "type": "address"
        }
      ],
      "name": "initialize",
      "outputs": [],
      "stateMutability": "nonpayable",
      "type": "function"
    },
    {
      "inputs": [
        {
          "internalType": "bytes32",
          "name": "role",
          "type": "bytes32"
        },
        {
          "internalType": "address",
          "name": "account",
          "type": "address"
        }
      ],
      "name": "renounceRole",
      "outputs": [],
      "stateMutability": "nonpayable",
      "type": "function"
    },
    {
      "inputs": [
        {
          "internalType": "bytes32",
          "name": "role",
          "type": "bytes32"
        },
        {
          "internalType": "address",
          "name": "account",
          "type": "address"
        }
      ],
      "name": "revokeRole",
      "outputs": [],
      "stateMutability": "nonpayable",
      "type": "function"
    },
    {
      "inputs": [
        {
          "internalType": "address",
          "name": "_ethxOracle",
          "type": "address"
        }
      ],
      "name": "setETHXOracle",
      "outputs": [],
      "stateMutability": "nonpayable",
      "type": "function"
    },
    {
      "inputs": [
        {
          "internalType": "uint256",
          "name": "_feeBps",
          "type": "uint256"
        }
      ],
      "name": "setFeeBps",
      "outputs": [],
      "stateMutability": "nonpayable",
      "type": "function"
    },
    {
      "inputs": [
        {
          "internalType": "bytes4",
          "name": "interfaceId",
          "type": "bytes4"
        }
      ],
      "name": "supportsInterface",
      "outputs": [
        {
          "internalType": "bool",
          "name": "",
          "type": "bool"
        }
      ],
      "stateMutability": "view",
      "type": "function"
    },
    {
      "inputs": [
        {
          "internalType": "string",
          "name": "_referralId",
          "type": "string"
        }
      ],
      "name": "swapETHToETHx",
      "outputs": [],
      "stateMutability": "payable",
      "type": "function"
    },
    {
      "inputs": [
        {
          "internalType": "uint256",
          "name": "_amount",
          "type": "uint256"
        }
      ],
      "name": "viewSwapETHxAmountAndFee",
      "outputs": [
        {
          "internalType": "uint256",
          "name": "ethxAmount",
          "type": "uint256"
        },
        {
          "internalType": "uint256",
          "name": "fee",
          "type": "uint256"
        }
      ],
      "stateMutability": "view",
      "type": "function"
    },
    {
      "inputs": [],
      "name": "withdrawCollectedETH",
      "outputs": [],
      "stateMutability": "nonpayable",
      "type": "function"
    },
    {
      "inputs": [
        {
          "internalType": "uint256",
          "name": "amount",
          "type": "uint256"
        }
      ],
      "name": "withdrawETHx",
      "outputs": [],
      "stateMutability": "nonpayable",
      "type": "function"
    },
    {
      "inputs": [
        {
          "internalType": "address",
          "name": "_receiver",
          "type": "address"
        }
      ],
      "name": "withdrawFees",
      "outputs": [],
      "stateMutability": "nonpayable",
      "type": "function"
    }
  ],
  "transactionHash": "0x80b5e70275af73f68b28a98932f202edd0a329b02930808e5a962f9e5b9e74a3",
  "args": [],
  "numDeployments": 1,
  "solcInputHash": "9915ecedb22e5da15ebc40c8b7a1fd6e",
  "bytecode": "0x608060405234801561001057600080fd5b5061001961001e565b6100dd565b600054610100900460ff161561008a5760405162461bcd60e51b815260206004820152602760248201527f496e697469616c697a61626c653a20636f6e747261637420697320696e697469604482015266616c697a696e6760c81b606482015260840160405180910390fd5b60005460ff908116146100db576000805460ff191660ff9081179091556040519081527f7f26b83ff96e1f2b6a682f133852f6798a09c465da95921460cefb38474024989060200160405180910390a15b565b61175f806100ec6000396000f3fe60806040526004361061012a5760003560e01c806378497380116100ab578063a43d4da51161006f578063a43d4da514610347578063b582650914610363578063d547741f14610376578063ec87621c14610396578063f4999d12146103b8578063f6c278c1146103d857600080fd5b806378497380146102a7578063894ea8be146102dc57806390ed579b146102fc57806391d1485414610312578063a217fddf1461033257600080fd5b80632f2ff15d116100f25780632f2ff15d146101ef57806336568abe1461020f5780634eee2f681461022f578063530b97a41461026757806372c27b621461028757600080fd5b806301ffc9a71461012f578063164e68de14610164578063248a9ca31461018657806324a9d853146101c457806326f1f70a146101da575b600080fd5b34801561013b57600080fd5b5061014f61014a36600461129c565b6103f8565b60405190151581526020015b60405180910390f35b34801561017057600080fd5b5061018461017f3660046112e2565b61042f565b005b34801561019257600080fd5b506101b66101a13660046112fd565b60009081526065602052604090206001015490565b60405190815260200161015b565b3480156101d057600080fd5b506101b660ca5481565b3480156101e657600080fd5b506101846104fc565b3480156101fb57600080fd5b5061018461020a366004611316565b6105c8565b34801561021b57600080fd5b5061018461022a366004611316565b6105f2565b34801561023b57600080fd5b5060cc5461024f906001600160a01b031681565b6040516001600160a01b03909116815260200161015b565b34801561027357600080fd5b50610184610282366004611342565b610675565b34801561029357600080fd5b506101846102a23660046112fd565b610815565b3480156102b357600080fd5b506102c76102c23660046112fd565b6108a3565b6040805192835260208301919091520161015b565b3480156102e857600080fd5b506101846102f73660046112fd565b610978565b34801561030857600080fd5b506101b660cb5481565b34801561031e57600080fd5b5061014f61032d366004611316565b610a63565b34801561033e57600080fd5b506101b6600081565b34801561035357600080fd5b506101b6670de0b6b3a764000081565b6101846103713660046113b6565b610a8e565b34801561038257600080fd5b50610184610391366004611316565b610b4c565b3480156103a257600080fd5b506101b660008051602061170a83398151915281565b3480156103c457600080fd5b506101846103d33660046112e2565b610b71565b3480156103e457600080fd5b5060c95461024f906001600160a01b031681565b60006001600160e01b03198216637965db0b60e01b148061042957506301ffc9a760e01b6001600160e01b03198316145b92915050565b60008051602061170a83398151915261044781610bd0565b60cb80546000918290556040519091906001600160a01b0385169083908381818185875af1925050503d806000811461049c576040519150601f19603f3d011682016040523d82523d6000602084013e6104a1565b606091505b50509050806104c3576040516312171d8360e31b815260040160405180910390fd5b6040518281527f9800e6f57aeb4360eaa72295a820a4293e1e66fbfcabcd8874ae141304a76deb9060200160405180910390a150505050565b60008051602061170a83398151915261051481610bd0565b600060cb5447610524919061147d565b604051909150600090339083908381818185875af1925050503d8060008114610569576040519150601f19603f3d011682016040523d82523d6000602084013e61056e565b606091505b5050905080610590576040516312171d8360e31b815260040160405180910390fd5b6040518281527f334545bc987c41a55885595bc455012eb8b0f5c9b057d4f1536a2c226aa665599060200160405180910390a1505050565b6000828152606560205260409020600101546105e381610bd0565b6105ed8383610bda565b505050565b6001600160a01b03811633146106675760405162461bcd60e51b815260206004820152602f60248201527f416363657373436f6e74726f6c3a2063616e206f6e6c792072656e6f756e636560448201526e103937b632b9903337b91039b2b63360891b60648201526084015b60405180910390fd5b6106718282610c60565b5050565b600054610100900460ff16158080156106955750600054600160ff909116105b806106af5750303b1580156106af575060005460ff166001145b6107125760405162461bcd60e51b815260206004820152602e60248201527f496e697469616c697a61626c653a20636f6e747261637420697320616c72656160448201526d191e481a5b9a5d1a585b1a5e995960921b606482015260840161065e565b6000805460ff191660011790558015610735576000805461ff0019166101001790555b61073e84610cc7565b61074782610cc7565b61074f610cee565b610757610d17565b610762600087610bda565b61077a60008051602061170a83398151915286610d46565b61079260008051602061170a83398151915287610d46565b60c980546001600160a01b038087166001600160a01b03199283161790925560ca85905560cc805492851692909116919091179055801561080d576000805461ff0019169055604051600181527f7f26b83ff96e1f2b6a682f133852f6798a09c465da95921460cefb38474024989060200160405180910390a15b505050505050565b600061082081610bd0565b6127108211156108435760405163c6cc5d7f60e01b815260040160405180910390fd5b6103e88211156108665760405163840da4b360e01b815260040160405180910390fd5b60ca8290556040518281527f4f78c4ceb393a616bbd264a4584a9ad15d722042ce1e135e6a8380217f5cb42b906020015b60405180910390a15050565b60008061271060ca54846108b79190611490565b6108c191906114a7565b905060006108cf828561147d565b9050600060cc60009054906101000a90046001600160a01b03166001600160a01b031663feaf968c6040518163ffffffff1660e01b815260040160a060405180830381865afa158015610926573d6000803e3d6000fd5b505050506040513d601f19601f8201168201806040525081019061094a91906114e3565b50505091505080670de0b6b3a7640000836109659190611490565b61096f91906114a7565b93505050915091565b60008051602061170a83398151915261099081610bd0565b60c9546040516370a0823160e01b81523060048201526001600160a01b03909116906370a0823190602401602060405180830381865afa1580156109d8573d6000803e3d6000fd5b505050506040513d601f19601f820116820180604052508101906109fc9190611527565b821115610a1c5760405163162908e360e11b815260040160405180910390fd5b60c954610a33906001600160a01b03163384610d50565b6040518281527f09b782f244eec9fc1c57f82de7810b6ce6398d6567013d96a13eb852b49a839690602001610897565b60009182526065602090815260408084206001600160a01b0393909316845291905290205460ff1690565b610a96610da2565b346000819003610ab95760405163162908e360e11b815260040160405180910390fd5b600080610ac5836108a3565b915091508060cb6000828254610adb9190611540565b909155505060c954610af7906001600160a01b03163384610d50565b336001600160a01b03167f6fc20b1cf8f9d1126dbd5964e2517cd71083acf40aed30fb6e0c4850d251c94f838387604051610b34939291906115a3565b60405180910390a2505050610b496001609755565b50565b600082815260656020526040902060010154610b6781610bd0565b6105ed8383610c60565b6000610b7c81610bd0565b610b8582610cc7565b60cc80546001600160a01b0319166001600160a01b0384169081179091556040517f3f32684a32a11dabdbb8c0177de80aa3ae36a004d75210335b49e544e48cd0aa90600090a25050565b610b498133610e02565b610be48282610a63565b6106715760008281526065602090815260408083206001600160a01b03851684529091529020805460ff19166001179055610c1c3390565b6001600160a01b0316816001600160a01b0316837f2f8788117e7eff1d82e926ec794901d17c78024a50270940304540a733656f0d60405160405180910390a45050565b610c6a8282610a63565b156106715760008281526065602090815260408083206001600160a01b0385168085529252808320805460ff1916905551339285917ff6391f5c32d9c69d2a47ea670b442974b53935d1edc7fd64eb21e047a839171b9190a45050565b6001600160a01b038116610b495760405163d92e233d60e01b815260040160405180910390fd5b600054610100900460ff16610d155760405162461bcd60e51b815260040161065e906115cb565b565b600054610100900460ff16610d3e5760405162461bcd60e51b815260040161065e906115cb565b610d15610e5b565b6106718282610bda565b604080516001600160a01b038416602482015260448082018490528251808303909101815260649091019091526020810180516001600160e01b031663a9059cbb60e01b1790526105ed908490610e82565b600260975403610df45760405162461bcd60e51b815260206004820152601f60248201527f5265656e7472616e637947756172643a207265656e7472616e742063616c6c00604482015260640161065e565b6002609755565b6001609755565b610e0c8282610a63565b61067157610e1981610f57565b610e24836020610f69565b604051602001610e35929190611616565b60408051601f198184030181529082905262461bcd60e51b825261065e9160040161168b565b600054610100900460ff16610dfb5760405162461bcd60e51b815260040161065e906115cb565b6000610ed7826040518060400160405280602081526020017f5361666545524332303a206c6f772d6c6576656c2063616c6c206661696c6564815250856001600160a01b031661110c9092919063ffffffff16565b9050805160001480610ef8575080806020019051810190610ef8919061169e565b6105ed5760405162461bcd60e51b815260206004820152602a60248201527f5361666545524332303a204552433230206f7065726174696f6e20646964206e6044820152691bdd081cdd58d8d9595960b21b606482015260840161065e565b60606104296001600160a01b03831660145b60606000610f78836002611490565b610f83906002611540565b67ffffffffffffffff811115610f9b57610f9b6113a0565b6040519080825280601f01601f191660200182016040528015610fc5576020820181803683370190505b509050600360fc1b81600081518110610fe057610fe06116c0565b60200101906001600160f81b031916908160001a905350600f60fb1b8160018151811061100f5761100f6116c0565b60200101906001600160f81b031916908160001a9053506000611033846002611490565b61103e906001611540565b90505b60018111156110b6576f181899199a1a9b1b9c1cb0b131b232b360811b85600f1660108110611072576110726116c0565b1a60f81b828281518110611088576110886116c0565b60200101906001600160f81b031916908160001a90535060049490941c936110af816116d6565b9050611041565b5083156111055760405162461bcd60e51b815260206004820181905260248201527f537472696e67733a20686578206c656e67746820696e73756666696369656e74604482015260640161065e565b9392505050565b606061111b8484600085611123565b949350505050565b6060824710156111845760405162461bcd60e51b815260206004820152602660248201527f416464726573733a20696e73756666696369656e742062616c616e636520666f6044820152651c8818d85b1b60d21b606482015260840161065e565b600080866001600160a01b031685876040516111a091906116ed565b60006040518083038185875af1925050503d80600081146111dd576040519150601f19603f3d011682016040523d82523d6000602084013e6111e2565b606091505b50915091506111f3878383876111fe565b979650505050505050565b6060831561126d578251600003611266576001600160a01b0385163b6112665760405162461bcd60e51b815260206004820152601d60248201527f416464726573733a2063616c6c20746f206e6f6e2d636f6e7472616374000000604482015260640161065e565b508161111b565b61111b83838151156112825781518083602001fd5b8060405162461bcd60e51b815260040161065e919061168b565b6000602082840312156112ae57600080fd5b81356001600160e01b03198116811461110557600080fd5b80356001600160a01b03811681146112dd57600080fd5b919050565b6000602082840312156112f457600080fd5b611105826112c6565b60006020828403121561130f57600080fd5b5035919050565b6000806040838503121561132957600080fd5b82359150611339602084016112c6565b90509250929050565b600080600080600060a0868803121561135a57600080fd5b611363866112c6565b9450611371602087016112c6565b935061137f604087016112c6565b925060608601359150611394608087016112c6565b90509295509295909350565b634e487b7160e01b600052604160045260246000fd5b6000602082840312156113c857600080fd5b813567ffffffffffffffff808211156113e057600080fd5b818401915084601f8301126113f457600080fd5b813581811115611406576114066113a0565b604051601f8201601f19908116603f0116810190838211818310171561142e5761142e6113a0565b8160405282815287602084870101111561144757600080fd5b826020860160208301376000928101602001929092525095945050505050565b634e487b7160e01b600052601160045260246000fd5b8181038181111561042957610429611467565b808202811582820484141761042957610429611467565b6000826114c457634e487b7160e01b600052601260045260246000fd5b500490565b805169ffffffffffffffffffff811681146112dd57600080fd5b600080600080600060a086880312156114fb57600080fd5b611504866114c9565b9450602086015193506040860151925060608601519150611394608087016114c9565b60006020828403121561153957600080fd5b5051919050565b8082018082111561042957610429611467565b60005b8381101561156e578181015183820152602001611556565b50506000910152565b6000815180845261158f816020860160208601611553565b601f01601f19169290920160200192915050565b8381528260208201526060604082015260006115c26060830184611577565b95945050505050565b6020808252602b908201527f496e697469616c697a61626c653a20636f6e7472616374206973206e6f74206960408201526a6e697469616c697a696e6760a81b606082015260800190565b7f416363657373436f6e74726f6c3a206163636f756e742000000000000000000081526000835161164e816017850160208801611553565b7001034b99036b4b9b9b4b733903937b6329607d1b601791840191820152835161167f816028840160208801611553565b01602801949350505050565b6020815260006111056020830184611577565b6000602082840312156116b057600080fd5b8151801515811461110557600080fd5b634e487b7160e01b600052603260045260246000fd5b6000816116e5576116e5611467565b506000190190565b600082516116ff818460208701611553565b919091019291505056fe241ecf16d79d0f8dbfb92cbc07fe17840425976cf0667f022fe9877caa831b08a26469706673582212204e4df3778dc79c73587c476819582d84f1c94e1bfbacd479b858f17ad276087d64736f6c63430008160033",
  "devdoc": {
    "errors": {
      "HighFees()": [
        {
          "details": "Thrown when input fee is too high"
        }
      ],
      "InvalidAmount()": [
        {
          "details": "Thrown when input is invalid amount"
        }
      ],
      "InvalidBps()": [
        {
          "details": "Thrown when input is invalid basis fee"
        }
      ],
      "TransferFailed()": [
        {
          "details": "Thrown when transfer is failed"
        }
      ],
      "ZeroAddress()": [
        {
          "details": "Thrown when input is zero address"
        }
      ]
    },
    "events": {
      "Initialized(uint8)": {
        "details": "Triggered when the contract has been initialized or reinitialized."
      },
      "RoleAdminChanged(bytes32,bytes32,bytes32)": {
        "details": "Emitted when `newAdminRole` is set as ``role``'s admin role, replacing `previousAdminRole` `DEFAULT_ADMIN_ROLE` is the starting admin for all roles, despite {RoleAdminChanged} not being emitted signaling this. _Available since v3.1._"
      },
      "RoleGranted(bytes32,address,address)": {
        "details": "Emitted when `account` is granted `role`. `sender` is the account that originated the contract call, an admin role bearer except when using {AccessControl-_setupRole}."
      },
      "RoleRevoked(bytes32,address,address)": {
        "details": "Emitted when `account` is revoked `role`. `sender` is the account that originated the contract call:   - if using `revokeRole`, it is the admin role bearer   - if using `renounceRole`, it is the role bearer (i.e. `account`)"
      }
    },
    "kind": "dev",
    "methods": {
      "constructor": {
        "custom:oz-upgrades-unsafe-allow": "constructor"
      },
      "getRoleAdmin(bytes32)": {
        "details": "Returns the admin role that controls `role`. See {grantRole} and {revokeRole}. To change a role's admin, use {_setRoleAdmin}."
      },
      "grantRole(bytes32,address)": {
        "details": "Grants `role` to `account`. If `account` had not been already granted `role`, emits a {RoleGranted} event. Requirements: - the caller must have ``role``'s admin role. May emit a {RoleGranted} event."
      },
      "hasRole(bytes32,address)": {
        "details": "Returns `true` if `account` has been granted `role`."
      },
      "initialize(address,address,address,uint256,address)": {
        "details": "Initialize the contract",
        "params": {
          "_admin": "The admin address",
          "_ethx": "The ETHx token address",
          "_ethxOracle": "The ethxOracle address",
          "_feeBps": "The fee basis points",
          "_manager": "The manager address"
        }
      },
      "renounceRole(bytes32,address)": {
        "details": "Revokes `role` from the calling account. Roles are often managed via {grantRole} and {revokeRole}: this function's purpose is to provide a mechanism for accounts to lose their privileges if they are compromised (such as when a trusted device is misplaced). If the calling account had been revoked `role`, emits a {RoleRevoked} event. Requirements: - the caller must be `account`. May emit a {RoleRevoked} event."
      },
      "revokeRole(bytes32,address)": {
        "details": "Revokes `role` from `account`. If `account` had been granted `role`, emits a {RoleRevoked} event. Requirements: - the caller must have ``role``'s admin role. May emit a {RoleRevoked} event."
      },
      "setETHXOracle(address)": {
        "details": "Sets the ethxOracle address",
        "params": {
          "_ethxOracle": "The ethxOracle address"
        }
      },
      "setFeeBps(uint256)": {
        "details": "Sets the fee basis points",
        "params": {
          "_feeBps": "The fee basis points"
        }
      },
      "supportsInterface(bytes4)": {
        "details": "See {IERC165-supportsInterface}."
      },
      "swapETHToETHx(string)": {
        "details": "Swaps ETH for ETHx",
        "params": {
          "_referralId": "The referral id"
        }
      },
      "viewSwapETHxAmountAndFee(uint256)": {
        "details": "view function to get the ETHx amount for a given amount of ETH",
        "params": {
          "_amount": "The amount of ETH"
        },
        "returns": {
          "ethxAmount": "The amount of ETHx that will be received",
          "fee": "The fee that will be charged"
        }
      },
      "withdrawCollectedETH()": {
        "details": "Withdraws collected ETH from the contract"
      },
      "withdrawETHx(uint256)": {
        "details": "Withdraws provisioned ETHx"
      },
      "withdrawFees(address)": {
        "details": "Withdraws fees earned by the pool"
      }
    },
    "version": 1
  },
  "userdoc": {
    "events": {
      "FeeBpsSet(uint256)": {
        "notice": "Emitted when basis fee is updated"
      },
      "FeesWithdrawn(uint256)": {
        "notice": "Emitted when accumulated fees is withdrawn"
      },
      "OracleSet(address)": {
        "notice": "Emitted when oracle address is updated"
      },
      "SwapOccurred(address,uint256,uint256,string)": {
        "notice": "Emitted when swap occured successfully"
      },
      "WithdrawCollectedETH(uint256)": {
        "notice": "Emitted when deposited ETH is withdrawn"
      },
      "WithdrawETHx(uint256)": {
        "notice": "Emitted when provisioned ETHx is withdrawn"
      }
    },
    "kind": "user",
    "methods": {
      "ETHER_TO_WEI()": {
        "notice": "Conversion factor from ether to wei"
      },
      "ETHx()": {
        "notice": "Address of ETHx token"
      },
      "MANAGER_ROLE()": {
        "notice": "Role hash of MANAGER"
      },
      "ethxOracle()": {
        "notice": "Address of the ETHx/ETH oracle"
      },
      "feeBps()": {
        "notice": "Basis points for fees"
      },
      "feeEarnedInETH()": {
        "notice": "Total fees earned in swap"
      }
    },
    "version": 1
  },
  "storageLayout": {
    "storage": [
      {
        "astId": 416,
        "contract": "contracts/L2/ETHxPoolV1.sol:ETHxPoolV1",
        "label": "_initialized",
        "offset": 0,
        "slot": "0",
        "type": "t_uint8"
      },
      {
        "astId": 419,
        "contract": "contracts/L2/ETHxPoolV1.sol:ETHxPoolV1",
        "label": "_initializing",
        "offset": 1,
        "slot": "0",
        "type": "t_bool"
      },
      {
        "astId": 1043,
        "contract": "contracts/L2/ETHxPoolV1.sol:ETHxPoolV1",
        "label": "__gap",
        "offset": 0,
        "slot": "1",
        "type": "t_array(t_uint256)50_storage"
      },
      {
        "astId": 1317,
        "contract": "contracts/L2/ETHxPoolV1.sol:ETHxPoolV1",
        "label": "__gap",
        "offset": 0,
        "slot": "51",
        "type": "t_array(t_uint256)50_storage"
      },
      {
        "astId": 28,
        "contract": "contracts/L2/ETHxPoolV1.sol:ETHxPoolV1",
        "label": "_roles",
        "offset": 0,
        "slot": "101",
        "type": "t_mapping(t_bytes32,t_struct(RoleData)23_storage)"
      },
      {
        "astId": 335,
        "contract": "contracts/L2/ETHxPoolV1.sol:ETHxPoolV1",
        "label": "__gap",
        "offset": 0,
        "slot": "102",
        "type": "t_array(t_uint256)49_storage"
      },
      {
        "astId": 593,
        "contract": "contracts/L2/ETHxPoolV1.sol:ETHxPoolV1",
        "label": "_status",
        "offset": 0,
        "slot": "151",
        "type": "t_uint256"
      },
      {
        "astId": 662,
        "contract": "contracts/L2/ETHxPoolV1.sol:ETHxPoolV1",
        "label": "__gap",
        "offset": 0,
        "slot": "152",
        "type": "t_array(t_uint256)49_storage"
      },
      {
        "astId": 3167,
        "contract": "contracts/L2/ETHxPoolV1.sol:ETHxPoolV1",
        "label": "ETHx",
        "offset": 0,
        "slot": "201",
        "type": "t_contract(IERC20)2379"
      },
      {
        "astId": 3170,
        "contract": "contracts/L2/ETHxPoolV1.sol:ETHxPoolV1",
        "label": "feeBps",
        "offset": 0,
        "slot": "202",
        "type": "t_uint256"
      },
      {
        "astId": 3173,
        "contract": "contracts/L2/ETHxPoolV1.sol:ETHxPoolV1",
        "label": "feeEarnedInETH",
        "offset": 0,
        "slot": "203",
        "type": "t_uint256"
      },
      {
        "astId": 3176,
        "contract": "contracts/L2/ETHxPoolV1.sol:ETHxPoolV1",
        "label": "ethxOracle",
        "offset": 0,
        "slot": "204",
        "type": "t_address"
      }
    ],
    "types": {
      "t_address": {
        "encoding": "inplace",
        "label": "address",
        "numberOfBytes": "20"
      },
      "t_array(t_uint256)49_storage": {
        "base": "t_uint256",
        "encoding": "inplace",
        "label": "uint256[49]",
        "numberOfBytes": "1568"
      },
      "t_array(t_uint256)50_storage": {
        "base": "t_uint256",
        "encoding": "inplace",
        "label": "uint256[50]",
        "numberOfBytes": "1600"
      },
      "t_bool": {
        "encoding": "inplace",
        "label": "bool",
        "numberOfBytes": "1"
      },
      "t_bytes32": {
        "encoding": "inplace",
        "label": "bytes32",
        "numberOfBytes": "32"
      },
      "t_contract(IERC20)2379": {
        "encoding": "inplace",
        "label": "contract IERC20",
        "numberOfBytes": "20"
      },
      "t_mapping(t_address,t_bool)": {
        "encoding": "mapping",
        "key": "t_address",
        "label": "mapping(address => bool)",
        "numberOfBytes": "32",
        "value": "t_bool"
      },
      "t_mapping(t_bytes32,t_struct(RoleData)23_storage)": {
        "encoding": "mapping",
        "key": "t_bytes32",
        "label": "mapping(bytes32 => struct AccessControlUpgradeable.RoleData)",
        "numberOfBytes": "32",
        "value": "t_struct(RoleData)23_storage"
      },
      "t_struct(RoleData)23_storage": {
        "encoding": "inplace",
        "label": "struct AccessControlUpgradeable.RoleData",
        "members": [
          {
            "astId": 20,
            "contract": "contracts/L2/ETHxPoolV1.sol:ETHxPoolV1",
            "label": "members",
            "offset": 0,
            "slot": "0",
            "type": "t_mapping(t_address,t_bool)"
          },
          {
            "astId": 22,
            "contract": "contracts/L2/ETHxPoolV1.sol:ETHxPoolV1",
            "label": "adminRole",
            "offset": 0,
            "slot": "1",
            "type": "t_bytes32"
          }
        ],
        "numberOfBytes": "64"
      },
      "t_uint256": {
        "encoding": "inplace",
        "label": "uint256",
        "numberOfBytes": "32"
      },
      "t_uint8": {
        "encoding": "inplace",
        "label": "uint8",
        "numberOfBytes": "1"
      }
    }
  }
}